:100000000C943B000C944D000C944D000C944D004E
:100010000C944D000C944D000C944D000C944D002C
:100020000C944D000C944D000C944D000C944D001C
:100030000C944D000C944D000C944D000C944D000C
:100040000C944D000C944D000C94C4000C94E700EB
:100050000C944D000C944D000C944D000C944D00EC
:100060000C944D000C944D0048656C6C6F20576FDC
:10007000726C6421000011241FBECFEFD8E0DEBFF8
:10008000CDBF21E0A0E0B1E001C01D92AA32B207CD
:10009000E1F70E9416010C9420010C94000088EBFB
:1000A0008093C10086E08093C2008FE590E090933A
:1000B000C5008093C40089E191E09093160180937C
:1000C0001501909318018093170184E091E09093BB
:1000D0000101809300019093030180930201089530
:1000E0008091290108959091C00095FF03C08093ED
:1000F000C6000895909114019F30E0F7909114018B
:100100009F5F90931401E0910001F09101019F0124
:100110002F5F3F4F309301012093000180830895AA
:1001200080912901882391F0809129018150809349
:100130002901E0911701F0911801CF0101969093E8
:10014000180180931701808190E008958FEF9FEF51
:100150000895CF93DF93EC018991811103C0DF9162
:10016000CF9108950E947300CE01F5CFCF93DF9316
:10017000EC01FE0184912196811103C0DF91CF91A2
:1001800008950E947300F5CF8F938FB78F939F933D
:10019000EF93FF9380912901803190F480912901A0
:1001A0008F5F80932901E0911501F0911601CF0135
:1001B000019690931601809315018091C60080836B
:1001C000FF91EF919F918F918FBF8F9118958F9392
:1001D0008FB78F939F93EF93FF93809114018823A0
:1001E000F1F080911401815080931401E09102019B
:1001F000F0910301CF0101969093030180930201D6
:1002000080818093C6008091020190910301009744
:1002100031F484E091E09093030180930201FF9117
:10022000EF919F918F918FBF8F91189538DF88E65E
:1002300090E09CDF75DF18161906E4F754DFFACF5B
:04024000F894FFCF60
:00000001FF
